{"abi":[{"type":"function","name":"agreementCount","inputs":[],"outputs":[{"name":"","type":"uint256","internalType":"uint256"}],"stateMutability":"view"},{"type":"function","name":"contracts","inputs":[{"name":"","type":"uint256","internalType":"uint256"}],"outputs":[{"name":"id","type":"uint256","internalType":"uint256"},{"name":"agreement","type":"string","internalType":"string"},{"name":"partyA","type":"address","internalType":"address"},{"name":"partyB","type":"address","internalType":"address"},{"name":"isSignedByA","type":"bool","internalType":"bool"},{"name":"isSignedByB","type":"bool","internalType":"bool"}],"stateMutability":"view"},{"type":"function","name":"createAgreement","inputs":[{"name":"_agreement","type":"string","internalType":"string"},{"name":"_partyB","type":"address","internalType":"address"}],"outputs":[],"stateMutability":"nonpayable"},{"type":"function","name":"signAgreementPartyB","inputs":[{"name":"_agreementId","type":"uint256","internalType":"uint256"}],"outputs":[],"stateMutability":"nonpayable"},{"type":"event","name":"AgreementCreated","inputs":[{"name":"_id","type":"uint256","indexed":false,"internalType":"uint256"},{"name":"_agreement","type":"string","indexed":false,"internalType":"string"},{"name":"partyA","type":"address","indexed":false,"internalType":"address"},{"name":"partyB","type":"address","indexed":false,"internalType":"address"}],"anonymous":false},{"type":"event","name":"partyBSigned","inputs":[{"name":"_id","type":"uint256","indexed":false,"internalType":"uint256"},{"name":"_agreement","type":"string","indexed":false,"internalType":"string"},{"name":"partyA","type":"address","indexed":false,"internalType":"address"},{"name":"partyB","type":"address","indexed":false,"internalType":"address"}],"anonymous":false}],"bytecode":{"object":"0x6080604052348015600f57600080fd5b506107e68061001f6000396000f3fe608060405234801561001057600080fd5b506004361061004c5760003560e01c8063474da79a14610051578063bb7bb2781461007f578063bd791a6e14610096578063d9ad1849146100ab575b600080fd5b61006461005f3660046103aa565b6100be565b60405161007696959493929190610409565b60405180910390f35b61008860005481565b604051908152602001610076565b6100a96100a4366004610484565b610192565b005b6100a96100b93660046103aa565b6102d3565b6001602081905260009182526040909120805491810180546100df90610546565b80601f016020809104026020016040519081016040528092919081815260200182805461010b90610546565b80156101585780601f1061012d57610100808354040283529160200191610158565b820191906000526020600020905b81548152906001019060200180831161013b57829003601f168201915b505050600284015460039094015492936001600160a01b0390811693908116925060ff600160a01b820481169250600160a81b9091041686565b600080546101a1906001610580565b6040805160c081018252828152602080820187815233838501526001600160a01b0387166060840152600160808401819052600060a0850181905286815292819052939091208251815590519394509092909182019061020190826105f8565b5060408201516002820180546001600160a01b0319166001600160a01b03928316179055606083015160039092018054608085015160a090950151939092166001600160a81b031990921691909117600160a01b931515939093029290921760ff60a81b1916600160a81b911515919091021790556000805460019190819061028b908490610580565b90915550506040517ffc4d16b1af99cfd7b76ac7c62876328f723a90da30b12cc6e1f94446c0f280b6906102c69083908690339087906106b8565b60405180910390a1505050565b600081815260016020526040902060038101546001600160a01b031633146103415760405162461bcd60e51b815260206004820152601960248201527f43616c6c6572206e6f7420657870656374656420706172747900000000000000604482015260640160405180910390fd5b60038101805460ff60a81b1916600160a81b17905560028101546040517f7123f60043d1917221c4d53632987b897dea5638537c62de7a9cce06150552039161039e91859160018601916001600160a01b039091169033906106f2565b60405180910390a15050565b6000602082840312156103bc57600080fd5b5035919050565b6000815180845260005b818110156103e9576020818501810151868301820152016103cd565b506000602082860101526020601f19601f83011685010191505092915050565b86815260c06020820152600061042260c08301886103c3565b6001600160a01b0396871660408401529490951660608201529115156080830152151560a0909101529392505050565b634e487b7160e01b600052604160045260246000fd5b80356001600160a01b038116811461047f57600080fd5b919050565b6000806040838503121561049757600080fd5b823567ffffffffffffffff808211156104af57600080fd5b818501915085601f8301126104c357600080fd5b8135818111156104d5576104d5610452565b604051601f8201601f19908116603f011681019083821181831017156104fd576104fd610452565b8160405282815288602084870101111561051657600080fd5b82602086016020830137600060208483010152809650505050505061053d60208401610468565b90509250929050565b600181811c9082168061055a57607f821691505b60208210810361057a57634e487b7160e01b600052602260045260246000fd5b50919050565b808201808211156105a157634e487b7160e01b600052601160045260246000fd5b92915050565b601f8211156105f3576000816000526020600020601f850160051c810160208610156105d05750805b601f850160051c820191505b818110156105ef578281556001016105dc565b5050505b505050565b815167ffffffffffffffff81111561061257610612610452565b610626816106208454610546565b846105a7565b602080601f83116001811461065b57600084156106435750858301515b600019600386901b1c1916600185901b1785556105ef565b600085815260208120601f198616915b8281101561068a5788860151825594840194600190910190840161066b565b50858210156106a85787850151600019600388901b60f8161c191681555b5050505050600190811b01905550565b8481526080602082015260006106d160808301866103c3565b6001600160a01b039485166040840152929093166060909101529392505050565b84815260006020608060208401526000865461070d81610546565b80608087015260a060018084166000811461072f576001811461074b5761077b565b60ff19851660a08a015260a084151560051b8a0101955061077b565b8b600052602060002060005b858110156107725781548b8201860152908301908801610757565b8a0160a0019650505b505050506001600160a01b03871660408601525091506107989050565b6001600160a01b03831660608301529594505050505056fea2646970667358221220d0d1430896fd0b978c9cbd6ff4220b89acc0bec222252f3a5e5885c09fde17ea64736f6c63430008190033","linkReferences":{}},"methodIdentifiers":{"agreementCount()":"bb7bb278","contracts(uint256)":"474da79a","createAgreement(string,address)":"bd791a6e","signAgreementPartyB(uint256)":"d9ad1849"},"id":1}